:100000000C9463000C948B000C948B000C948B006C
:100010000C948B000C948B000C948B000C948B0034
:100020000C948B000C948B000C948B000C94CB01E3
:100030000C948B000C948B000C948B000C948B0014
:100040000C944F030C948B000C9468040C948B005C
:100050000C948B000C948B000C948B000C948B00F4
:100060000C948B000C948B000000000024002700EF
:100070002A0000000000250028002B0000000000DE
:1000800023002600290004040404040404040202DA
:100090000202020203030303030301020408102007
:1000A0004080010204081020010204081020000012
:1000B0000007000201000003040600000000000029
:1000C00000008802ED0511241FBECFEFD4E0DEBF93
:1000D000CDBF11E0A0E0B1E0ECE7FEE002C005908A
:1000E0000D92AA30B107D9F711E0AAE0B1E001C042
:1000F0001D92A93DB107E1F710E0C6ECD0E004C0C5
:100100002297FE010E943807C23CD107C9F70E941E
:1001100048030C943C070C940000FC0180910A01F8
:100120008C3090F480838F5F80930A01815090E03F
:10013000FC01EE0FFF1FE80FF91FE55FFE4F88EB94
:100140009BE09283818308958FEF80830895FC0163
:1001500020812C30C0F58181992787FD909548E852
:1001600050E0481B590B440F551F440F551F64178F
:10017000750784F08281992787FD909548E552E0C4
:10018000481B590B440F551F440F551F6417750723
:100190000CF4AB01CA01AA2797FDA095BA2F0697C8
:1001A000A109B109880F991FAA1FBB1F4FB7F89467
:1001B00030E0F901EE0FFF1FE20FF31FE55FFE4F86
:1001C000928381834FBF0895AF92BF92CF92DF9207
:1001D000EF92FF920F931F93CF93DF93EC019B015C
:1001E00082E0603278070CF048C077FF03C020E05F
:1001F00030E005C0653B710514F024EB30E000D021
:1002000000D0B901882777FD8095982F2981332761
:1002100027FD3095B8E8AB2EB12CA21AB30AAA0C70
:10022000BB1CAA0CBB1CCC24B7FCC094DC2CEA8100
:10023000FF27E7FDF09528E532E02E1B3F0B220F4C
:10024000331F220F331F442737FD4095542FEDB73E
:10025000FEB7218332834383548320E030E040E0C3
:1002600050E0E4EBEE2EF12C012D112D0E945E06E4
:100270009B010F900F900F900F90CE01B9010E943B
:10028000A700DF91CF911F910F91FF90EF90DF902A
:10029000CF90BF90AF900895CF92DF92EF92FF92F0
:1002A0001F93CF93DF93EC01162F7A0169018881A8
:1002B0008C3008F064C0862F61E00E94FB038881C7
:1002C00090E0FC01EE0FFF1FE80FF91FE55FFE4F06
:1002D0001F738081807C812B808380E292E08E1965
:1002E0009F0964E070E00E94D206698380E699E08D
:1002F0008C199D0964E070E00E94D2066A83A8818F
:100300008A2F6CE00E94C606682F70E0AB01440F94
:10031000551F460F571F440F551F440F551F20E010
:1003200030E0C901840F951FFC01EE0FFF1FE80F9D
:10033000F91FE55FFE4F808186FD15C02F5F3F4F9F
:100340002C30310571F724C01092800082E0809338
:1003500081001092850010928400B19A80916F0004
:10036000826080936F008A2F90E0FC01EE0FFF1FE8
:10037000E80FF91FE55FFE4F8081806480838881EC
:10038000DF91CF911F91FF90EF90DF90CF90089574
:10039000672BD1F2E8CF1F920F920FB60F92112464
:1003A0002F933F934F935F936F937F938F939F937D
:1003B000AF93BF93EF93FF9380912F0187FF05C009
:1003C00010928500109284002BC020912F013327BA
:1003D00027FD309580910A0190E02817390704F530
:1003E00080912F01992787FD9095FC01EE0FFF1F4B
:1003F000E80FF91FE55FFE4F808186FF11C08091F5
:100400002F01992787FD9095FC01EE0FFF1FE80F44
:10041000F91FE55FFE4F80818F7360E00E941B042F
:1004200080912F018F5F80932F0120912F0133271F
:1004300027FD309580910A0190E0281739070CF0CC
:100440004EC080912F018C300CF049C02091840067
:100450003091850080912F01992787FD9095FC01AF
:10046000EE0FFF1FE80FF91FE55FFE4F81819281BC
:10047000280F391F309389002093880080912F0125
:10048000992787FD9095FC01EE0FFF1FE80FF91FDC
:10049000E55FFE4F808186FF2AC080912F0199275A
:1004A00087FD9095FC01EE0FFF1FE80FF91FE55F38
:1004B000FE4F80818F7361E00E941B0418C080E4AE
:1004C0009CE905C0809184009091850004969093EA
:1004D0008900809388008FEF80932F0108C080915E
:1004E00084009091850084549C4948F3EBCFFF91A0
:1004F000EF91BF91AF919F918F917F916F915F919C
:100500004F913F912F910F900FBE0F901F90189514
:1005100080E391E00E948D00089586EC91E00E94B6
:100520009E05882309F4A0C06AE070E080E090E0B6
:100530000E949703109234011092330110923601F9
:100540001092350186EC91E00E94B205C09790931D
:10055000340180933301019749F486EC91E00E94C5
:10056000B205C09790933601809335018091330195
:1005700090913401029731F586EC91E00E94B2052A
:10058000C0979C0173E0220F331F7A95E1F7880F23
:10059000991F280F391F309336012093350186ECBF
:1005A00091E00E94B205C097909338018093370183
:1005B0002091350130913601280F391F30933601D3
:1005C000209335018091330190913401039709F014
:1005D00043C086EC91E00E94B205C09724E630E06B
:1005E000AC01429FC001439F900D529F900D11247A
:1005F000909336018093350186EC91E00E94B2051C
:10060000C0979C0153E0220F331F5A95E1F7880FE2
:10061000991F280F391F309338012093370180919B
:10062000350190913601820F931F9093360180938C
:10063000350186EC91E00E94B205C0979093380195
:10064000809337012091350130913601280F391FF1
:100650003093360120933501609135017091360158
:1006600080E391E00E94E400089586EC91E040E090
:1006700052EC61E070E00E94A50480E391E069E043
:1006800070E048EE53E020ED37E00E944C01089501
:100690000E94C1030E9435030E948D02FDCF1F926C
:1006A0000F920FB60F9211242F933F938F939F9326
:1006B000AF93BF9380913D0190913E01A0913F0186
:1006C000B0914001309141010196A11DB11D232F30
:1006D0002D5F2D3720F02D570196A11DB11D2093C0
:1006E000410180933D0190933E01A0933F01B0935F
:1006F00040018091390190913A01A0913B01B09164
:100700003C010196A11DB11D8093390190933A01DE
:10071000A0933B01B0933C01BF91AF919F918F910A
:100720003F912F910F900FBE0F901F901895EF9251
:10073000FF920F931F937B018C018FB7F894409128
:100740003D0150913E0160913F01709140018FBF8A
:100750002FB7F89480913D0190913E01A0913F0107
:10076000B09140012FBF841B950BA60BB70BE81669
:10077000F9060A071B0760F71F910F91FF90EF9092
:100780000895789484B5826084BD84B5816084BD09
:1007900085B5826085BD85B5816085BDEEE6F0E0FA
:1007A000808181608083E1E8F0E0808182608083E5
:1007B000808181608083E0E8F0E0808181608083D7
:1007C000E1EBF0E0808184608083E0EBF0E0808109
:1007D00081608083EAE7F0E08081846080838081AB
:1007E0008260808380818160808380818068808353
:1007F0001092C1000895282F30E0C90186569F4FFE
:10080000FC0194912A573F4FF9018491882391F07C
:10081000E82FF0E0EE0FFF1FE859FF4FA591B491CC
:10082000662329F48C91909589238C9308958C915B
:10083000892B8C930895482F50E0CA0182559F4F11
:10084000FC012491CA0186569F4FFC0194914A579E
:100850005F4FFA0134913323D1F1222331F1233058
:1008600021F4809180008F7705C0243031F480918D
:1008700080008F7D8093800018C0213019F484B5EA
:100880008F7704C0223021F484B58F7D84BD0DC0E4
:10089000263021F48091B0008F7705C0273029F4ED
:1008A0008091B0008F7D8093B000E32FF0E0EE0FD9
:1008B000FF1FEE58FF4FA591B491662329F48C9148
:1008C000909589238C9308958C91892B8C9308950E
:1008D0001F920F920FB60F9211242F933F934F93B5
:1008E0005F936F937F938F939F93AF93BF93EF9398
:1008F000FF934091C600E091C201F091C301CF0186
:10090000019660E870E00E94D2069C018091C401CB
:100910009091C5012817390739F0EE5BFE4F4083EF
:100920003093C3012093C201FF91EF91BF91AF912A
:100930009F918F917F916F915F914F913F912F91F7
:100940000F900FBE0F901F9018955F926F927F923D
:100950008F929F92AF92BF92CF92DF92EF92FF92CF
:100960000F931F93CF93DF93EC013A014B01413476
:1009700082E458078FE0680780E078070CF07FC0BA
:1009800060E874E88EE190E0A40193010E940707FB
:100990002150304040405040CA01B90122E030E0CF
:1009A00040E050E00E94070759016A01A601950145
:1009B000209530954095509594E0220F331F441FA9
:1009C000551F9A95D1F760E074E284EF90E00E94A1
:1009D0000707CA01B9012FEF30E040E050E00E9464
:1009E000A706A40193010E940707C90181509F4FE8
:1009F000181619061CF4522E5A9403C05524539409
:100A0000521A60E079E08DE390E0A40193010E9426
:100A100007072150304040405040CA01B90122E050
:100A200030E040E050E00E94070720953095409567
:100A3000509583E0220F331F441F551F8A95D1F72D
:100A400060E074E284EF90E00E940707CA01B901F8
:100A50002FEF30E040E050E00E94A706A401930190
:100A60000E940707C90181509F4F181619061CF4F0
:100A7000822F815002C081E0821B851500F5E88538
:100A8000F98581E090E00A8802C0880F991F0A94D6
:100A9000E2F7808360E079E08DE390E0A4019301C8
:100AA0000E9407072150304040405040CA01B90120
:100AB00022E030E040E050E00E94070704C0E885F3
:100AC000F98510829501EC81FD813083EE81FF81F3
:100AD0002083EA85FB85208141E050E0CA010E8435
:100AE00002C0880F991F0A94E2F7282B2083EA8519
:100AF000FB852081CA010F8402C0880F991F0A94C8
:100B0000E2F7282B2083EA85FB858081088802C0D4
:100B1000440F551F0A94E2F7842B8083DF91CF9115
:100B20001F910F91FF90EF90DF90CF90BF90AF900B
:100B30009F908F907F906F905F900895DC01129648
:100B4000ED91FC911397E058FF4F8191919180585E
:100B50009F4F20813181821B930B60E870E00E94DF
:100B6000D2060895CF93DF93DC011296ED91FC91AC
:100B70001397EF01CE57DF4F48815981E058FF4F5F
:100B800080819181E058F0408417950719F42FEF88
:100B90003FEF0CC0E40FF51F2081CA01019660E809
:100BA00070E00E94D2069983888330E0C901DF910A
:100BB000CF910895FC01A085B18521898C9190E0A9
:100BC000022E02C0959587950A94E2F780FFF6CF32
:100BD0000484F585E02D6083089584E091E090938E
:100BE000C7018093C60182E491E09093C90180938C
:100BF000C80185EC90E09093CB018093CA0184EC0E
:100C000090E09093CD018093CC0180EC90E09093A4
:100C1000CF018093CE0181EC90E09093D10180933D
:100C2000D00186EC90E09093D3018093D20184E0D0
:100C30008093D40183E08093D50187E08093D6012F
:100C400085E08093D70181E08093D80108950F93C8
:100C50001F93CF93DF938C01EB0109C02196D8013C
:100C6000ED91FC910190F081E02DC801099568811A
:100C70006623A1F7DF91CF911F910F910895EF9215
:100C8000FF920F931F93CF93DF938C017B01EA01B7
:100C90000CC0D7016D917D01D801ED91FC910190BF
:100CA000F081E02DC80109952197209791F7DF91F8
:100CB000CF911F910F91FF90EF9008952F923F9247
:100CC0004F925F926F927F928F929F92AF92BF925C
:100CD000CF92DF92EF92FF920F931F93DF93CF9308
:100CE000CDB7DEB73B014C0119012A016D897E8920
:100CF0008F89988D6A197B098C099D09621A730A7C
:100D0000840A950AA40193010E94A706E218F30839
:100D100004091509A80197010E9407072A0D3B1D28
:100D20004C1D5D1DB901CA01CF91DF911F910F913B
:100D3000FF90EF90DF90CF90BF90AF909F908F90FB
:100D40007F906F905F904F903F902F900895629F9B
:100D5000D001739FF001829FE00DF11D649FE00DB3
:100D6000F11D929FF00D839FF00D749FF00D659F14
:100D7000F00D9927729FB00DE11DF91F639FB00D13
:100D8000E11DF91FBD01CF0111240895991B79E0E0
:100D900004C0991F961708F0961B881F7A95C9F70B
:100DA0008095089597FB092E07260AD077FD04D079
:100DB00049D006D000201AF4709561957F4F0895B0
:100DC000F6F7909581959F4F0895A1E21A2EAA1BE0
:100DD000BB1BFD010DC0AA1FBB1FEE1FFF1FA217EB
:100DE000B307E407F50720F0A21BB30BE40BF50BE8
:100DF000661F771F881F991F1A9469F76095709571
:100E0000809590959B01AC01BD01CF01089597FBA2
:100E1000092E05260ED057FD04D0D7DF0AD0001CBE
:100E200038F450954095309521953F4F4F4F5F4F87
:100E30000895F6F790958095709561957F4F8F4F47
:100E40009F4F0895AA1BBB1B51E107C0AA1FBB1FE0
:100E5000A617B70710F0A61BB70B881F991F5A9546
:100E6000A9F780959095BC01CD010895EE0FFF1F65
:0C0E70000590F491E02D0994F894FFCF58
:0A0E7C0000000000DA0527063F061B
:00000001FF
